:100000000C9463000C948B000C948B000C948B006C
:100010000C948B000C948B000C948B000C94F507C3
:100020000C948B000C948B000C948B000C948B0024
:100030000C948B000C948B000C948B000C948B0014
:100040000C94AB070C948B000C9477080C9451081B
:100050000C948B000C948B000C948B000C948B00F4
:100060000C94A9080C948B000000000024002700C9
:100070002A000000000023002600290000000008DC
:10008000000201000003040700000000000000005F
:10009000010204081020408001020408102001021F
:1000A0000408102000000000250028002B00040494
:1000B0000404040404040202020202020303030310
:1000C00003030200C80911241FBECFEFD8E0DEBF32
:1000D000CDBF11E0A0E0B1E0E8E0FDE102C0059095
:1000E0000D92A83AB107D9F723E0A8EAB1E001C020
:1000F0001D92A536B207E1F710E0C3E6D0E004C0D8
:100100002197FE010E947C0EC236D107C9F70E94DA
:10011000560A0C94820E0C940000833081F028F46F
:10012000813099F08230A9F008958730A9F08830A5
:10013000C9F08430B1F4809180008F7D03C080913C
:1001400080008F7780938000089584B58F7784BD79
:10015000089584B58F7DFBCF8091B0008F77809319
:10016000B00008958091B0008F7DF9CFCF93DF93D9
:10017000282F30E0F901E458FF4F8491F901E0574E
:10018000FF4FD491F901E255FF4FC491CC23A1F068
:1001900081110E948D00EC2FF0E0EE0FFF1FEE5852
:1001A000FF4FA591B491EC91ED2381E090E009F42B
:1001B00080E0DF91CF91089580E090E0FACF1F9327
:1001C000CF93DF93282F30E0F901E458FF4F84915B
:1001D000F901E057FF4FD491F901E255FF4FC49167
:1001E000CC23A9F0162F81110E948D00EC2FF0E096
:1001F000EE0FFF1FEC55FF4FA591B4918FB7F89408
:10020000EC91111108C0D095DE23DC938FBFDF91F4
:10021000CF911F910895DE2BF8CFCF93DF9390E01D
:10022000FC01E057FF4F249182559F4FFC018491C0
:100230008823D1F090E0880F991FFC01E859FF4F07
:10024000A591B491FC01EC55FF4FC591D49161117A
:100250000EC09FB7F8948C91E22FE0958E238C937B
:100260002881E223E8839FBFDF91CF9108958FB764
:10027000F894EC91E22BEC938FBFF6CFCF93809163
:100280000201893021F08F3FC9F0CF910895E2EC4F
:10029000F0E0C491C7FDF9CF61E089E00E940D0153
:1002A000CC2309F479C0C23009F08DC08091B1002F
:1002B000887F84608093B1008BE9ABC089E0809334
:1002C0000201E2ECF0E0C491CF3FF9F2C13021F13C
:1002D00050F0C23009F43EC0C7FDD7CF61E089E0DD
:1002E0000E940D01E0CF14BC15BC84B5826084BDB2
:1002F00085B5816085BDE7EBF0E0E491F0E0EE0FBD
:10030000FF1FEC55FF4F85919491E9E9F0E0E491EE
:10031000E0938102C0E0C0CF109280001092810073
:10032000809181008860809381008091810081604C
:1003300080938100E7EBF0E0E491F0E0EE0FFF1F27
:10034000EC55FF4F85919491E9E9F0E0E491E09359
:100350008002A2CF1092B0001092B1008091B00044
:1003600082608093B0008091B10081608093B10081
:10037000E7EBF0E0E491F0E0EE0FFF1FEC55FF4FEC
:100380008591949190937F0280937E02E9E9F0E059
:10039000E491E0937D0280CF85B5887F836085BD41
:1003A0008BE987BD8FEF9FEFDC0180938A029093EA
:1003B0008B02A0938C02B0938D0280916E008260BC
:1003C00080936E0062CFC130E9F480918100887F14
:1003D0008160809381008FE097E290938900809301
:1003E00088008FEF9FEFDC01809386029093870255
:1003F000A0938802B093890280916F0082608093FD
:100400006F0043CFC23021F0C1113FCF8FE0C9CF81
:100410008FE08093B3008FEF9FEFDC018093820227
:1004200090938302A0938402B09385028091700020
:1004300082608093700029CF1F93CF93DF93182F92
:10044000EB0161E00E940D01209739F460E0812FFB
:10045000DF91CF911F910C94DF00CF3FD10511F4B4
:1004600061E0F5CFE12FF0E0E458FF4FE491E33095
:1004700031F140F4E130B1F0E230E1F0C038D105C3
:100480007CF7E4CFE73029F1E83059F1E430B1F7F7
:1004900080918000806280938000D0938B00C09315
:1004A0008A0004C084B5806884BDC7BDDF91CF9148
:1004B0001F91089584B5806284BDC8BDF7CF809137
:1004C0008000806880938000D0938900C09388006A
:1004D000EDCF8091B00080688093B000C093B300EE
:1004E000E5CF8091B00080628093B000C093B400EB
:1004F000DDCF3FB7F8948091790290917A02A09174
:100500007B02B0917C0226B5A89B05C02F3F19F055
:100510000196A11DB11D3FBFBA2FA92F982F882783
:10052000BC01CD01620F711D811D911D42E0660F5E
:10053000771F881F991F4A95D1F708950F931F932E
:10054000CF93DF93EC018A81882321F061E08881D9
:100550000E940D0160E088810E94DF0083E090E04E
:100560000197F1F761E088810E94DF0083E290E06B
:100570000197F1F760E088810E94DF008A8188237B
:1005800021F060E088810E940D010E9479026B8356
:100590007C838D839E8389810E94B600892B99F488
:1005A0000E9479020B811C812D813E81601B710BA1
:1005B000820B930B0F81188529853A85061717073B
:1005C0002807390740F70E9479026B837C838D836B
:1005D0009E8389810E94B600892B99F00E9479023E
:1005E0000B811C812D813E81601B710B820B930B53
:1005F0000F81188529853A850617170728073907B7
:1006000040F70E9479022B813C81CB01821B930B26
:1006100068E370E00E94680ECB01DF91CF911F91DB
:100620000F9108958F929F92AF92BF92CF92DF92D7
:10063000EF92FF924B015C010E9479026B017C01F9
:100640000E9479026C197D098E099F09683E7340EA
:1006500081059105A8F321E0821A9108A108B1084B
:1006600088EEC80E83E0D81EE11CF11C81149104B1
:10067000A104B10429F7FF90EF90DF90CF90BF90D5
:10068000AF909F908F9008952FB7F8946091750266
:100690007091760280917702909178022FBF089531
:1006A000089508959091020189130BC0E2ECF0E0E7
:1006B000E4919FEF90930201E13049F028F0E2309D
:1006C00061F060E00C94DF0010926E00FACF909120
:1006D0006F009D7F90936F00F4CF909170009D7F8D
:1006E0009093700091E09093B0009091B100987F4A
:1006F00094609093B1001092B300E3CFAF92BF9299
:10070000CF92DF92EF92FF920F931F93CF93DF93DD
:100710006C017B018B01040F151FEB015E01AE180C
:10072000BF08C017D10759F06991D601ED91FC912E
:100730000190F081E02DC6010995892B79F7C5015B
:10074000DF91CF911F910F91FF90EF90DF90CF90AD
:10075000BF90AF900895FC01538D448D252F30E05C
:10076000842F90E0821B930B541710F0CF960895BE
:1007700001970895FC01918D828D981761F0A28DEB
:10078000AE0FBF2FB11D5D968C91928D9F5F9F73B1
:10079000928F90E008958FEF9FEF0895FC01918D67
:1007A000828D981731F0828DE80FF11D858D90E0D4
:1007B00008958FEF9FEF0895FC01918D228D892F71
:1007C00090E0805C9F4F821B91098F739927089559
:1007D00082E992E00E94DC0321E0892B09F420E009
:1007E000822F089580E090E0892B29F00E94E80391
:1007F00081110C9400000895FC01A48DA80FB92F5D
:10080000B11DA35ABF4F2C91848D90E001968F7338
:100810009927848FA689B7892C93A089B1898C9157
:10082000837080648C93938D848D981306C00288A6
:10083000F389E02D80818F7D80830895EF92FF9270
:100840000F931F93CF93DF93EC0181E0888F9B8DF3
:100850008C8D98131AC0E889F989808185FF15C0AD
:100860009FB7F894EE89FF896083E889F9898081D0
:100870008370806480839FBF81E090E0DF91CF919F
:100880001F910F91FF90EF900895F62E0B8D10E0C1
:100890000F5F1F4F0F731127E02E8C8D8E110CC030
:1008A0000FB607FCFACFE889F989808185FFF5CF7B
:1008B000CE010E94FC03F1CFEB8DEC0FFD2FF11D5B
:1008C000E35AFF4FF0829FB7F8940B8FEA89FB89B8
:1008D00080818062CFCFCF93DF93EC01888D882316
:1008E000B9F0AA89BB89E889F9898C9185FD03C093
:1008F000808186FD0DC00FB607FCF7CF8C9185FF78
:10090000F2CF808185FFEDCFCE010E94FC03E9CFBD
:10091000DF91CF91089520910E02260F3327331FC8
:1009200021323105ECF420913202FC0190E080E0AC
:10093000243069F082E00895A0910E022191AC016B
:1009400042515E4FA40FB52FB11D2C93019686170F
:1009500098F380910E02680F60930E0280E0089574
:1009600081E008951092320281E080933402109267
:10097000330261E082E10E94DF0061E083E10E94D6
:10098000DF00E9EBF0E080818E7F808380818D7FC6
:10099000808388E48093B80085E48093BC00089548
:1009A000CF93DF9391E09093ED018823B9F0C0914C
:1009B000B800D091BA008091BC008A7B8093BC00C3
:1009C00060E082E10E94DF0060E083E10E94DF00DE
:1009D0000E94B204D093BA00C093B800DF91CF91C7
:1009E00008950895E0915D0280915C02E81730F46B
:1009F000F0E0E853FE4F808190E008958FEF9FEF85
:100A0000089590915D0280915C022FEF3FEF98175F
:100A100048F4E92FF0E0E853FE4F208130E09F5F7B
:100A200090935D02C901089580915C0290915D02EE
:100A3000891B990B0895CF92DF92EF92FF920F934B
:100A40001F93CF93DF937C01CB018A012091910208
:100A5000222389F0EB016B01C40ED51ECC15DD05F8
:100A600069F06991D701ED91FC910190F081E02D41
:100A7000C7010995F3CF642F0E948B04C801DF9151
:100A8000CF911F910F91FF90EF90DF90CF9008953D
:100A9000CF93DF931F92CDB7DEB769832091910288
:100AA0002223F9F020918E02203258F021E030E02C
:100AB000FC013383228390E080E00F90DF91CF919F
:100AC000089580918F02E82FF0E0E855FE4F99815C
:100AD00090838F5F80938F0280938E0281E090E0FD
:100AE000ECCF61E0CE0101960E948B04F7CFCF924C
:100AF000DF92EF92FF920F931F93CF93DF93D091EA
:100B00008E0281E0D13208F09CC0C09190020E9418
:100B100079026B017C018091320281116CC082E00C
:100B20008093320281E0809334028FEF8093310210
:100B300010925602D0935502A8EAB1E0E5E3F2E044
:100B400080E0D8138DC01092570280915702CC0FCD
:100B5000C82BC093570280913302813009F084C0C2
:100B6000109233020E9479026B017C01809157023E
:100B70008093BB008091E9019091EA01A091EB0183
:100B8000B091EC01892B8A2B8B2BA1F00E9479026A
:100B90000091E9011091EA012091EB013091EC0103
:100BA0006C197D098E099F09061717072807390751
:100BB00008F442C08091BC0083FDD8CF85EC8093BF
:100BC000BC000E9479026B017C018091320282306C
:100BD00009F44CC0809131028F3F09F469C08091C3
:100BE0003102803209F466C080913102803309F409
:100BF00063C084E026C08091E9019091EA01A09150
:100C0000EB01B091EC01892B8A2B8B2B09F483CF5C
:100C10000E9479020091E9011091EA012091EB0113
:100C20003091EC016C197D098E099F090617170791
:100C30002807390708F06FCF8091E8010E94D0049F
:100C400085E010928F0210928E0210929102DF9135
:100C5000CF911F910F91FF90EF90DF90CF9008956B
:100C60009D9191938F5F6DCF85EEA9CF8091E90122
:100C70009091EA01A091EB01B091EC01892B8A2BB4
:100C80008B2B09F4A2CF0E9479020091E901109107
:100C9000EA012091EB013091EC016C197D098E097C
:100CA0009F09061717072807390708F08ECFC4CF0A
:100CB00080E0C7CF82E0C5CF83E0C3CFEF92FF9241
:100CC0000F931F93CF93DF938C017B01DC011A9666
:100CD0008C911A9791E090939102809390021092D8
:100CE0008F0210928E021E968D919C91DC01ED91E7
:100CF000FC910190F081E02DDB016C910995CBE82E
:100D0000D1E0CE010197F1F7F80186859785DC01E6
:100D1000ED91FC910190F081E02DD70111966C913D
:100D200009952197F1F7F80186859785DF91CF9195
:100D30001F910F91FF90EF900C947705CF93DF9365
:100D400000D01F92CDB7DEB7611112C080681B8240
:100D500090E899838A83BE016F5F7F4F8BE393E0B6
:100D60000E945E060F900F900F90DF91CF91089533
:100D7000806CEDCFCF93DF9300D01F92CDB7DEB75D
:100D80001B8290E899838A83BE016F5F7F4F8BE35C
:100D900093E00E945E060F900F900F90DF91CF912D
:100DA00008951F93CF93DF93162FCBE3D3E0AE8547
:100DB000BF859B8521E02093910290939002109231
:100DC0008F0210928E02ED91FC9111970190F081AB
:100DD000E02D682FCD0109958E859F85DC01ED9171
:100DE000FC910190F081E02D612F09958E859F8502
:100DF000DF91CF911F910C947705CF93DF9300D0B3
:100E00001F92CDB7DEB71B8220E429836A83BE011F
:100E10006F5F7F4F0E945E0681E090E00F900F9021
:100E20000F90DF91CF910895089590E080E00895AC
:100E30008F929F92AF92BF920F931F93CF93DF93A6
:100E4000CDB7DEB7A1970FB6F894DEBF0FBECDBF0A
:100E500019A2423008F44AE08E010F5D1F4F842E24
:100E6000912CB12CA12CA50194010E94370EE62FE4
:100E7000B901CA01EA3044F5E05DD801EE938D0175
:100E8000232B242B252B79F790E080E0109769F035
:100E9000FD0101900020E9F73197AF014A1B5B0B80
:100EA000BD018BE393E00E947E03A1960FB6F894F8
:100EB000DEBF0FBECDBFDF91CF911F910F91BF90CD
:100EC000AF909F908F900895E95CD7CFFC0101907F
:100ED0000020E9F73197AF01481B590BBC018BE3A8
:100EE00093E00C947E0385ED8093BC008091E90132
:100EF0009091EA01A091EB01B091EC010796A11D40
:100F0000B11D23E0B695A795979587952A95D1F7BA
:100F10002091BC0024FD03C010923202089540913C
:100F2000E9015091EA016091EB017091EC01452BD0
:100F3000462B472B69F30097A105B10541F02AE242
:100F40002A95F1F700C00197A109B109E1CF80917D
:100F5000E8010C94D0041F920F920FB60F92112447
:100F60002F933F938F939F93AF93BF93809175027D
:100F700090917602A0917702B0917802309174023C
:100F800023E0230F2D3758F50196A11DB11D2093A5
:100F900074028093750290937602A0937702B093C7
:100FA00078028091790290917A02A0917B02B091AF
:100FB0007C020196A11DB11D8093790290937A0263
:100FC000A0937B02B0937C02BF91AF919F918F91D0
:100FD0003F912F910F900FBE0F901F90189526E80C
:100FE000230F0296A11DB11DD2CF1F920F920FB6F3
:100FF0000F9211242F933F934F935F936F937F939F
:101000008F939F93AF93BF93EF93FF93809182024F
:1010100090918302A0918402B0918502892B8A2B42
:101020008B2BD1F190917D02E0917E02F0917F02B5
:101030008081892780838091820290918302A09190
:101040008402B0918502181619061A061B069CF434
:101050008091820290918302A0918402B0918502D6
:101060000197A109B1098093820290938302A09312
:101070008402B0938502FF91EF91BF91AF919F9150
:101080008F917F916F915F914F913F912F910F9031
:101090000FBE0F901F901895809102010E9452037D
:1010A000EACF1F920F920FB60F9211242F933F9306
:1010B0004F935F936F937F938F939F93AF93BF9360
:1010C000EF93FF9382E992E00E94FC03FF91EF917E
:1010D000BF91AF919F918F917F916F915F914F9150
:1010E0003F912F910F900FBE0F901F9018951F9258
:1010F0000F920FB60F9211242F938F939F93EF931C
:10110000FF93E091A202F091A3028081E091A802F6
:10111000F091A90282FD1BC090818091AB028F5F8C
:101120008F732091AC02821741F0E091AB02F0E0A6
:10113000EE56FD4F958F8093AB02FF91EF919F91FB
:101140008F912F910F900FBE0F901F901895808157
:10115000F4CF1F920F920FB60F9211242F933F934B
:101160004F935F936F937F938F939F93AF93BF93AF
:10117000EF93FF938091B900887F803609F44AC0CD
:10118000F0F5883209F4A7C018F5803109F49BC046
:10119000B8F4882309F4F9C0883009F494C0FF91A9
:1011A000EF91BF91AF919F918F917F916F915F91DF
:1011B0004F913F912F910F900FBE0F901F90189558
:1011C000883109F488C0803251F78093310214C00D
:1011D000803409F49DC040F48033B9F38833F9F6C4
:1011E0008093310285ECB0C0803509F485C0883524
:1011F00009F496C0883499F60E947307D0CF8839D5
:1012000009F48CC038F5883729F050F4883611F08D
:10121000803729F683E0809332021092300257C063
:10122000883809F47BC0803919F0803809F0B7CFCD
:1012300080913002803208F071C0E091300281E08C
:101240008E0F809330028091BB00F0E0E05FFD4F95
:1012500080833DC0803B39F0E0F4803A09F479C0E6
:10126000883A09F09CCF84E08093320210920F02FA
:1012700010920E02E0915A02F0915B020995809162
:101280000E0281110FC081E080930E021092EE01D8
:1012900009C0803C09F4A6CF883C09F4A3CF883B61
:1012A00009F07DCFE0910F0281E08E0F80930F0255
:1012B000F0E0E251FE4F80818093BB0090910F02DD
:1012C00080910E0229C0809157028093BB0085EC6B
:1012D0008093BC0064CF909156028091550298177C
:1012E00058F5E091560281E08E0F80935602F0E0AF
:1012F000EB5CFD4F8081E9CFE091560281E08E0FDB
:10130000809356028091BB00F0E0EB5CFD4F808340
:1013100090915602809155029817C8F285E8D8CF6F
:10132000E091560281E08E0F809356028091BB00BF
:10133000F0E0EB5CFD4F80838091340281115CCF43
:1013400081E08093330284EA8093BC0010923202E1
:1013500026CF85EC8093BC0010923202809130023F
:10136000803230F4E0913002F0E0E05FFD4F108217
:101370006091300270E0E0915802F091590280E1F2
:1013800092E00995109230020ACF1092310234CFC8
:101390008F929F92AF92BF92FF920F931F93CF9322
:1013A000DF93E2E9F2E01382128288EE93E0A0E09C
:1013B000B0E084839583A683B78327E031E031834F
:1013C000208325EC30E03587248724EC30E0378714
:1013D000268720EC30E0318B208B21EC30E0338B02
:1013E000228B22EC30E0358B248B26EC30E0378BDF
:1013F000268B118E128E138E148E0FE213E0F801DD
:101400001382128284839583A683B78389E191E056
:1014100091838083CAE5D3E082E0F82EF88283E0EE
:1014200089831A8261E082E00E940D0160E0898177
:101430000E940D0190E2892E9EE4992EA12CB12CE0
:101440008F829886A986BA86CFE4D3E08BE0888322
:101450008AE089831A8261E08BE00E940D0160E0DE
:1014600089810E940D018F829886A986BA86EBE356
:10147000F3E0138212828BE291E091838083108AE1
:10148000118A128A138A8EE3828787E2838780E13A
:101490008487F58617870687DF91CF911F910F917B
:1014A000FF90BF90AF909F908F900895CF93DF9360
:1014B00000D000D000D0CDB7DEB7789484B582607C
:1014C00084BD84B5816084BD85B5826085BD85B5E8
:1014D000816085BD80916E00816080936E00109266
:1014E00081008091810082608093810080918100E1
:1014F0008160809381008091800081608093800072
:101500008091B10084608093B1008091B0008160CF
:101510008093B00080917A00846080937A008091FB
:101520007A00826080937A0080917A008160809353
:101530007A0080917A00806880937A001092C100CE
:1015400061E08DE00E940D0160E08DE00E94DF000F
:1015500010925D0210925C0210928F0210928E0225
:101560000E94B20480E593E090935B0280935A025C
:1015700081E593E09093590280935802809146034D
:10158000803609F086C284E080934B0383E0809329
:101590004C0382E080934D0380934E0310923F03EF
:1015A00080914803823018F098E090933F03809335
:1015B00043031092440362E370E080E090E00E94F5
:1015C000120380913F0380620E94BA0665E070E0DA
:1015D00080E090E00E94120380913F0380620E94AD
:1015E000BA0665E070E080E090E00E94120380910E
:1015F0003F0380620E94BA0684E0809340038CE03F
:101600000E94BA0681E00E94BA068BE39FE101972F
:10161000F1F782E08093410386E00E94BA06809150
:101620004603803609F056C260E080E00E94D10691
:101630006FEF88E00E94D10660E281E00E94D1064F
:1016400080914B0390914603903309F066C260ECA1
:101650000E94D10660EC80914C030E94D10660ECA0
:1016600080914D030E94D10661E084E00E940D014B
:1016700061E08CE00E940D0161E089E00E940D01B3
:1016800089E00E94520360E080E00E949E0683E3AE
:1016900091E00E94660761E080E00E949E0681E47E
:1016A00091E00E946607E091A202F091A30282E01D
:1016B0008083E0919E02F0919F021082E091A0024F
:1016C000F091A1028FEC80831092AA02E091A60211
:1016D000F091A70286E08083E091A402F091A50238
:1016E000808180618083E091A402F091A5028081D5
:1016F00088608083E091A402F091A50280818068D7
:101700008083E091A402F091A50280818F7D808387
:1017100084E1C82ED12CE12CF12C0E9444030091CD
:101720006002109161022091620230916302601B9D
:10173000710B820B930B6A3F710581059105D8F0FF
:101740000E9444036093600270936102809362027E
:101750009093630261E080915E0290915F02892B19
:1017600009F060E0862F90E090935F0280935E0224
:101770008DE00E94DF000E9444034B015C018091D8
:10178000700290917102A0917202B0917302A50152
:101790009401281B390B4A0B5B0BDA01C9018A3F04
:1017A0009105A105B10508F467C18AE593E00E949F
:1017B0009E028AE593E00E949E029A8389838AE5CD
:1017C00093E00E949E028C018AE593E00E949E02B3
:1017D0001C010E9444032B013C0180916502909101
:1017E0006602A0916702B0916802A3019201281BD2
:1017F000390B4A0B5B0B2B833C834D835E83D801F3
:1018000025E63FEF4FEF5FEF0E942C0EA7019601F8
:101810000E940D0E21503F4F4F4F5F4F032E000C83
:10182000440B550B8B819C81AD81BE818217930740
:10183000A407B50778F04092650250926602609264
:101840006702709268028091640281117BC191E00D
:1018500090936402232809F078C161E084E00E943B
:10186000DF0060E08CE00E949E068FE791E00E941E
:10187000660780910001882371F060E08CE00E948F
:101880009E068AE593E00E949E02BC0190E080E003
:101890004AE00E9418078AE593E00E949E02892B85
:1018A00009F071C10E943E018FE493E00E949E0204
:1018B0008FE493E00E949E029A8389838FE493E0F1
:1018C0000E949E028C018FE493E00E949E021C0104
:1018D0000E9444032B013C0180916A0290916B02AB
:1018E000A0916C02B0916D02A3019201281B390BEB
:1018F0004A0B5B0B2B833C834D835E83D80125E62B
:101900003FEF4FEF5FEF0E942C0EA70196010E9460
:101910000D0E21503F4F4F4F5F4F032E000C440BD5
:10192000550B8B819C81AD81BE8182179307A407E3
:10193000B50778F040926A0250926B0260926C0296
:1019400070926D0280916902811121C191E09093A2
:101950006902232809F01EC161E08CE00E94DF00CB
:1019600060E08CE00E949E068FE791E00E9466078F
:1019700080910001882371F060E08CE00E949E0657
:101980008FE493E00E949E02BC0190E080E04AE078
:101990000E9418078FE493E00E949E02892B09F0B1
:1019A00017C10E943E018AE593E00E949E0245977E
:1019B00008F012C1A1E0A093010180916F02811192
:1019C0000AC081E00E94BA068BE39FE10197F1F71C
:1019D000B1E0B0936F0260E080E00E949E068FE469
:1019E00091E00E94660761E080E00E949E068FE51C
:1019F00091E00E9466078091010160E08111F6C0CC
:101A00008CE00E949E068AE593E00E949E02BC0143
:101A100090E080E04AE00E94180761E08CE00E94BC
:101A20009E068FE493E00E949E02BC0190E080E05D
:101A30004AE00E94180789E00E94520380916E02DA
:101A4000882391F060E081E00E949E068FE691E09D
:101A50000E94660761E082E00E949E068FE691E0A8
:101A60000E94660710926E0280927002909271023C
:101A7000A0927202B092730240E050E0452B09F44C
:101A80004CCE0E94E803882309F447CE0E94000050
:101A900044CE803341F486E080934B0387E080930B
:101AA0004C0388E077CD8B3641F486E080934B037E
:101AB00085E080934C0384E06DCD8D3209F06ECDCE
:101AC00081E080934B0392E090934C0393E09093DA
:101AD0004D0362CD803359F460E081E00E94D1066D
:101AE0006FEF82E00E94D10665E184E0A7CD8B36DE
:101AF00009F0A6CD60E08FE20E94D10660E280E0AE
:101B00000E94D10660E081E00E94D10661E082E09F
:101B10000E94D10664E083E091CD6FEF0E94D10670
:101B20006FEF80914C030E94D1066FEF80914D03BF
:101B30000E94D106809146038B3609F095CD6FEF58
:101B400087E090CD1092640285CEA981BA8121E010
:101B50003FEF4FEF5FEF0E942C0EA70196010E940E
:101B60000D0E21503F4F4F4F5F4F8091640290E028
:101B7000829FB001839F700D929F700D112484E0AD
:101B80000E941C026ECE89E00E9452038DCE1092FC
:101B90006902DFCEA981BA8121E03FEF4FEF5FEF0D
:101BA0000E942C0EA70196010E940D0E21503F4F5E
:101BB0004F4F5F4F8091690290E0829FB001839FF9
:101BC000700D929F700D11248CE00E941C02C8CEF3
:101BD00089E00E945203E7CE8FE493E00E949E02C8
:101BE000459708F4E7CE10920101E7CE80E00E940D
:101BF0009E0683E891E00E94660761E080E00E9413
:101C00009E0686E991E00E94660721E020936E021D
:101C1000109200010E943E0127CF052E97FB1EF473
:101C200000940E94240E57FD07D00E94370E07FC37
:101C300003D04EF40C94240E509540953095219588
:101C40003F4F4F4F5F4F08959095809570956195E8
:101C50007F4F8F4F9F4F08950E94590EA59F900D63
:101C6000B49F900DA49F800D911D11240895A1E2B1
:101C70001A2EAA1BBB1BFD010DC0AA1FBB1FEE1F06
:101C8000FF1FA217B307E407F50720F0A21BB30B51
:101C9000E40BF50B661F771F881F991F1A9469F7CD
:101CA00060957095809590959B01AC01BD01CF0129
:101CB0000895A29FB001B39FC001A39F700D811D25
:101CC0001124911DB29F700D811D1124911D089545
:101CD000AA1BBB1B51E107C0AA1FBB1FA617B70752
:101CE00010F0A61BB70B881F991F5A95A9F780956E
:101CF0009095BC01CD010895EE0FFF1F0590F49162
:081D0000E02D0994F894FFCFD7
:101D08000101FF000000001E047E03AB036B04DC2E
:101D180003BA03CE030000000048051B051507F1B0
:101D28000414050105F20400000000FD067E0315F9
:101D380007140744697374616E636961313A20203E
:101D48000044697374616E636961323A202000440B
:101D5800697374616E636961313A20202020004400
:101D6800697374616E636961323A20202020002013
:101D7800202020202020202020202020202020205B
:101D88002020002020444554454E474120535520EB
:101D980020202020200020205645484943554C4FFC
:081DA800202020202020200053
:00000001FF
